:020000040800F2
:10000000C80D00201902000895060008C505000863
:100010009106000875040008C717000800000000DA
:1000200000000000000000000000000011110008A6
:100030009304000800000000B90D00083D120008FC
:1000400033020008330200083302000833020008BC
:1000500033020008330200083302000833020008AC
:10006000330200083302000833020008330200089C
:10007000330200083302000833020008330200088C
:10008000330200083302000833020008330200087C
:10009000330200083302000833020008330200086C
:1000A000330200083302000833020008330200085C
:1000B000330200083302000833020008330200084C
:1000C000330200083302000833020008330200083C
:1000D00033020008A51500083302000833020008A7
:1000E000330200083302000833020008330200081C
:1000F000330200083302000833020008330200080C
:1001000033020008330200083302000833020008FB
:1001100033020008330200083302000833020008EB
:1001200033020008330200083302000833020008DB
:1001300000F002F800F060F80AA090E8000C824499
:100140008344AAF10107DA4501D100F055F8AFF276
:10015000090EBAE80F0013F0010F18BFFB1A43F0A5
:1001600001031847A0260000C026000010F8013B3C
:100170000A4413F0030408BF10F8014B1D1108BF17
:1001800010F8015B641E05D010F8016B641E01F8C5
:10019000016BF9D1002D15D010F8014B03F00C03C1
:1001A0000C2BA1EB04040ABF10F8013BA4EB831451
:1001B000A4EB032405F1010314F8016B5B1E01F8A5
:1001C000016BF9D5914238BF10F8013BD1D370478C
:1001D0000023002400250026103A28BF78C1FBD850
:1001E000520728BF30C148BF0B60704700207047DE
:1001F0001FB51FBD10B510BD00F00AF91146FFF77D
:10020000F7FF01F03BFC00F028F903B4FFF7F2FF21
:1002100003BC01F06EFB0000094880470948004715
:10022000FEE7FEE7FEE7FEE7FEE7FEE7FEE7FEE7A6
:10023000FEE7FEE704480549054A064B7047000003
:100240005512000831010008C8070020C80D002021
:10025000C8090020C8090020704700000FB40449F5
:1002600010B503AA029800F0A5F810BC5DF814FBC5
:10027000980600202DE9F05F894604464FF0000AF9
:10028000DFF824B1FB44C0F820A02046E16888478D
:1002900000287DD0252806D0D4E901219047206A86
:1002A000401C2062F1E700255F462046E168884750
:1002B0002028064607DB312E05D2B81910F8200C8D
:1002C00008B10543F1E7A80701D525F00405C4F8F6
:1002D0001CA00027C4F818A02A2E09D0304601F02F
:1002E00001FB38B304EB8708303EC8F8186019E00A
:1002F00059F8041B204604EB87029161E1688847A6
:10030000012F064618D1E069002820DA25F02005E3
:100310001DE0D8F8180000EB800006EB40003038F4
:10032000C8F818002046E1688847064601F0DAFA66
:100330000028EED1012F0AD02E2E08D12046E168E8
:1003400088477F1C0646022F45F02005C4DBA069C4
:10035000002803DA404245F00105A061E80701D01A
:1003600025F01005A6B1A6F14100192802D82036C3
:1003700045F400654A463146204625604D46FFF764
:1003800035FF60B1012807D0ED1D25F0070000E022
:1003900007E000F1080978E705F1040975E7304640
:1003A0007AE7206ABDE8F09F682500007047704733
:1003B00070477047074B70B50D467B4400F011F84D
:1003C0000446284600F020F810B14FF0FF3070BD11
:1003D000204670BDA316000001694A1C026108781E
:1003E000704700B58FB0CDE9013100210591054975
:1003F0007944CDE9031011466846FFF73BFF0FB083
:1004000000BD0000E5FFFFFF007B00F080007047AB
:10041000754600F02BF8AE4605006946534620F0BD
:100420000700854618B020B5FFF704FFBDE820405F
:100430004FF000064FF000074FF000084FF0000BA0
:1004400021F00701AC46ACE8C009ACE8C009ACE853
:10045000C009ACE8C0098D46704710B50446AFF33B
:1004600000802046BDE81040FFF7CFBE004870472F
:100470006807002000BFFEE770B505460C46284619
:1004800000F03CFD064626EA0401284601F0B8F9D2
:1004900070BD70472DE9F04102460025002600207E
:1004A00000230024002791F803C00CF00F0591F8F9
:1004B00003C00CF0100CBCF1000F03D091F802C087
:1004C0004CEA050591F800C0BCF1000F31D014686A
:1004D00000202BE04FF0010C0CFA00F3B1F800C043
:1004E0000CEA03069E4220D183004FF00F0C0CFA59
:1004F00003F7BC4305FA03FC4CEA040491F803C07B
:10050000BCF1280F06D14FF0010C0CFA00FCC2F828
:1005100014C00AE091F803C0BCF1480F05D14FF0B8
:10052000010C0CFA00FCC2F810C0401C0828D1D302
:100530001460B1F800C0BCF1FF0F34DD5468002036
:100540002EE000F1080C4FF0010808FA0CF3B1F8A6
:1005500000C00CEA03069E4221D183004FF00F0C2D
:100560000CFA03F7BC4305FA03FC4CEA040491F8C7
:1005700003C0BCF1280F05D100F1080C08FA0CF8F3
:10058000C2F8148091F803C0BCF1480F07D100F104
:10059000080C4FF0010808FA0CF8C2F81080401C53
:1005A0000828CED35460BDE8F0810246002093684D
:1005B0000B400BB1012000E0002070474161704703
:1005C0000161704700BFFEE710B54FF400610948B4
:1005D000FFF7F6FF4FF480610648FFF7F1FF4FF495
:1005E00080610448FFF7EAFF4FF400610148FFF71C
:1005F000E5FF10BD000C014010B54FF40061074845
:10060000FFF7DEFF4FF480610448FFF7D7FF4FF498
:1006100080610248FFF7D4FF10BD0000000C0140CC
:1006200010B54FF400610448FFF7CAFF4FF40061B2
:100630000148FFF7C3FF10BD000C014010B5044690
:10064000412C24D108210846FFF716FF3D21112037
:1006500001F0D6F88621172001F0D2F87F2126205C
:1006600001F0CEF81E212D2001F0CAF800212C2027
:1006700001F0C6F88D212A2001F0C2F83E212B207E
:1006800001F0BEF8022001F0C7F900F04DFA10BDEC
:1006900000BFFEE7704710B54FF4A06000F03AF8D5
:1006A00010BD000070B5002100230F22C47804B3F0
:1006B000154C246804F4E064C4F5E064210AC1F137
:1006C0000403CA40447804FA03F1847814402143B7
:1006D00009010E4C0678A155047804F01F05012489
:1006E000AC4005786D11AD0005F1E025C5F800417D
:1006F00009E0047804F01F050124AC40044D06789D
:10070000761145F8264070BD0CED00E000E400E0F5
:1007100080E100E002490143024A11607047000095
:100720000000FA050CED00E070B5002418E004F1BB
:10073000B000002100F074F90021084600F070F9C3
:100740000021102000F06CF9002505E001210020B7
:1007500000F066F9681CC5B2802DF7DB601CC4B2DE
:10076000082CE4DB70BD000008B50121082000F072
:100770004BFB4FF44060ADF8000010208DF80300F3
:1007800003208DF8020069463C48FFF783FE4FF4D2
:1007900040613A48FFF714FF4FF4487001F0E6F863
:1007A0000021AE2000F03CF90021084600F038F9A5
:1007B0000021102000F034F90021402000F030F931
:1007C0000021B02000F02CF90021812000F028F950
:1007D0000021FF2000F024F90021A12000F020F9E1
:1007E0000021A62000F01CF90021A82000F018F933
:1007F00000213F2000F014F90021C82000F010F97A
:100800000021D32000F00CF90021084600F008F97F
:100810000021D52000F004F90021802000F000F92B
:100820000021D82000F0FCF80021052000F0F8F8A5
:100830000021D92000F0F4F80021F12000F0F0F8B8
:100840000021DA2000F0ECF80021122000F0E8F896
:100850000021DB2000F0E4F80021302000F0E0F877
:1008600000218D2000F0DCF80021142000F0D8F8E1
:100870000021AF2000F0D4F808BD0000000C0140BA
:1008800070B504460D4605F1B000002100F0C8F82F
:10089000102141EA1410002100F0C2F804F00F000A
:1008A000002100F0BDF870BD2DE9F04180460E46F4
:1008B0001546002731464046FFF7E2FF00240AE0D4
:1008C000124A02EB4511085D012100F0A9F8781CDD
:1008D000C7B2601CC4B2102CF2DB701CC1B240461F
:1008E000FFF7CEFF00240CE06900491C074A02EB29
:1008F0000111085D012100F093F8781CC7B2601C5B
:10090000C4B2102CF0DBBDE8F08100001400002020
:100910002DE9F04707460E469046994600250024EB
:10092000A8F12000C5B27F2F02DD0027B01CC6B29F
:10093000B9F1100F24D131463846FFF7A1FF00244A
:1009400008E004EB0511194A505C012100F068F839
:10095000601CC4B2082CF4DB701CC1B23846FFF72F
:100960008FFF002409E004EB051108310F4A505CA9
:10097000012100F055F8601CC4B2082CF3DB12E032
:1009800031463846FFF77CFF00240AE005EB4501BD
:10099000074A02EB4101085D012100F041F8601CAB
:1009A000C4B2062CF2DBBDE8F0870000002200088C
:1009B000D81E00082DE9F04107460E469046002556
:1009C000002445467F2F02DD0027B01CC6B2314609
:1009D0003846FFF755FF002408E004EB05110F4AE5
:1009E000505C012100F01CF8601CC4B2082CF4DB40
:1009F000701CC1B23846FFF743FF002409E004EB46
:100A000005110831054A505C012100F009F8601C0D
:100A1000C4B2082CF3DBBDE8F0810000002100081F
:100A200070B504460D461DB1E0B200F045FF02E08E
:100A3000E0B200F02BFF70BD10B5FFF775FE00228D
:100A400002211046FFF730FF012202211020FFF79C
:100A50002BFF022211462020FFF726FF032202214E
:100A60003020FFF721FF042202214020FFF71CFF66
:100A7000052202215020FFF717FF10233A220221FE
:100A80006020FFF745FF10235B2206210020FFF7BF
:100A90003FFF1023232206210820FFF739FF1023F0
:100AA0005D2206211846FFF733FF06221146182063
:100AB000FFF7FAFE072206212820FFF7F5FE102394
:100AC0005B2206214220FFF723FF10232A22062162
:100AD0004A20FFF71DFF10235D2206215220FFF759
:100AE00017FF082206215A20FFF7DEFE0922062101
:100AF0006A20FFF7D9FE10BD10B5FFF715FE0C22D6
:100B000002212020FFF7D0FE0D2202213020FFF726
:100B1000CBFE0E2202214020FFF7C6FE0F2202214B
:100B20005020FFF7C1FE10BD10B5142000F0E6F90B
:100B3000044604F0030018B90321142000F0E9FA78
:100B400010BDF0B587B00546002708210846FFF71D
:100B500093FC00210D2000F053FE80210E20FFF7B2
:100B60008BFC93208DF8080020208DF8090001A847
:100B700002AB022202A900900C2000F01AF80646EF
:100B800086B9002407E002A8005D285502A8005D90
:100B90004740601CC4B2042CF5DB02A8005DB842DB
:100BA00000D0022680210E2000F0B3FA304607B0B4
:100BB000F0BD2DE9FE4F0646884691469A46DDF87F
:100BC00030B0022002900020019000900C2E06D040
:100BD0000E2E09D1122001901020009005E0772000
:100BE00001903020009000E000BF00BF019840F06D
:100BF0008001022000F004FE80210420FFF73CFC6D
:100C00000021012000F0FCFD80210A2000F081FA83
:100C1000002505E018F80510092000F0F1FD6D1C15
:100C20004D45F7D33146012000F0EAFD0C2E03D1EB
:100C300080210D2000F06DFA4FF47A7500BF04207A
:100C400000F05CF904466D1E35B104F0010018B9DE
:100C5000009820400028F2D080210D20FFF70CFCE6
:100C600095B3062000F04AF900F01B0068BB002095
:100C700002900198204000F0010008B1012002908C
:100C80000C2E24D10A2000F039F904460C2000F083
:100C900035F900F007072FB1601E07EBC000CBF855
:100CA000000002E0E000CBF8000004B90124122C9F
:100CB00000DD1224002505E0092000F01FF90AF8E4
:100CC00005006D1CA542F7D301E0022002908021AF
:100CD0000C2000F01EFA0021012000F091FD029886
:100CE000BDE8FE8F70B588B005460C460821084661
:100CF000FFF7C2FB07210D2000F082FD0321142025
:100D000000F007FA8DF80C5002A803AB012203A9EA
:100D100000900C20FFF74DFF06464EB902981028B0
:100D200006D19DF80C0020709DF80D00607000E069
:100D30000226304608B070BD10B501211D48FFF7EE
:100D40003FFC012000F068FE01211A48FFF736FC45
:100D5000012000F061FE01211648FFF731FC01205F
:100D600000F05AFE0F21012000F04AFD00BF0120D3
:100D700000F0C4F800F010000028F8D1012000F0C5
:100D80004BFE3D21112000F03BFD1E212D2000F0E7
:100D900037FD00212C2000F033FD8D212A2000F0AA
:100DA0002FFD3E212B2000F02BFD4021152000F0CF
:100DB00027FD10BD000C01407047000010B500F089
:100DC000B7F801210648FFF7FBFB10210548FFF7A4
:100DD000F7FBFFF7B1FF4120FFF730FC10BD00002B
:100DE000000C01400008014029B1064AD2690243C3
:100DF000044BDA6104E0034AD2698243014BDA61B1
:100E0000704700000010024029B1064A926902436F
:100E1000044B9A6104E0034A92698243014B9A6150
:100E2000704700000010024030B50021002200246D
:100E300000232D4D6D6805F00C0121B1042905D06A
:100E4000082923D105E0294D056022E0274D0560E2
:100E50001FE0254D6D6805F47012234D6D6805F493
:100E60008034022505EB92421CB9214D55430560A3
:100E70000BE01D4D6D6805F400351DB11C4D55434B
:100E8000056002E0194D5543056002E0174D05600D
:100E900000BF00BF144D6D6805F0F0010909154D44
:100EA0006B5C0568DD4045600F4D6D6805F4E061E1
:100EB000090A104D6B5C4568DD4085600A4D6D6820
:100EC00005F46051C90A0B4D6B5C4568DD40C56097
:100ED000054D6D6805F44041890B074D6B5CC56895
:100EE000B5FBF3F5056130BD0010024000127A0039
:100EF00000093D00780600208806002070B50446F1
:100F00007E2000EA440040F0800510210748FFF7EA
:100F100055FB284600F0D2F800F0AAF8064610214A
:100F20000248FFF74DFB304670BD0000000801404D
:100F300000B587B001210C20FFF766FF01210803EF
:100F4000FFF752FF1020ADF818008DF81B000320AA
:100F50008DF81A0006A92E48FFF79CFA2020ADF85C
:100F6000180010208DF81B0003208DF81A0006A928
:100F70002748FFF78FFA4020ADF8180004208DF8BD
:100F80001B0003208DF81A0006A92148FFF782FAFA
:100F90008020ADF8180010208DF81B0003208DF87C
:100FA0001A0006A91A48FFF775FA0120ADF81800D3
:100FB00010208DF81B0003208DF81A0006A9154893
:100FC000FFF768FA0020ADF804004FF48270ADF826
:100FD00006000020ADF808000220ADF80A0001204C
:100FE000ADF80C004002ADF80E003820ADF810004E
:100FF0000020ADF812000720ADF8140001A9064842
:1010000000F018F80121044800F008F807B000BD0E
:1010100000080140000C01400030014021B102886D
:1010200042F04002028004E002884FF6BF731A408B
:101030000280704710B50022028802F441520B88EA
:101040004C8823438C882343CC8823430C89234337
:101050004C8923438C892343CC8923431A43028040
:10106000838B4FF2FF74234083830B8A038210BD6E
:1010700070B500251CE06006040E20210E48FFF725
:101080009DFA142000F0C8FC40210B48FFF78DFAB0
:10109000012801D144F00104142000F0BDFC2021FE
:1010A0000548FFF78DFA142000F0B6FC681CC5B2A5
:1010B000082DE0DB204670BD0008014070B50446F5
:1010C000002520E004F0800020B180210F48FFF7C8
:1010D00077FA03E080210D48FFF770FA142000F042
:1010E0009BFC20210948FFF769FA142000F094FCCA
:1010F00020210648FFF764FA142000F08DFC6006FA
:10110000040E681CC5B2082DDCDB70BD0008014070
:10111000704770B505460C462846FFF7EFFE0646B9
:1011200046EA0401284600F06BFB70BD10B500F0E4
:1011300001F810BD0CB50020019000903348006804
:1011400040F480303149086000BF3048006800F446
:10115000003000900198401C0190009818B9019847
:10116000B0F5A06FF1D12948006800F4003010B14B
:101170000120009001E0002000900098012843D158
:101180002348006840F010002149086008460068C4
:1011900020F0030008600846006840F00200086084
:1011A0001A4840681949486008464068486008463F
:1011B000406840F4806048600846406820F47C1035
:1011C00048600846406840F4E810486008460068F7
:1011D00040F08070086000BF0C48006800F00070AC
:1011E0000028F9D00948406820F00300074948600A
:1011F0000846406840F00200486000BF034840686D
:1012000000F00C000828F9D10CBD000000100240CD
:1012100000200240042808D14FF0E021096941F084
:1012200004014FF0E022116107E04FF0E02109696D
:1012300021F004014FF0E0221161704710B500F079
:1012400001F810BD02480068401C01490860704761
:101250009406002010B51348006840F001001149C1
:10126000086008464068104908400E494860084632
:1012700000680E4908400B4908600846006820F4E1
:10128000802008600846406820F4FE0048604FF463
:101290001F008860FFF74AFF4FF0006004490860B4
:1012A00010BD0000001002400000FFF8FFFFF6FE36
:1012B00008ED00E008B501210820FFF7A5FD40205A
:1012C000ADF8000010208DF8030003208DF8020017
:1012D00069460B48FFF7DEF80948006820F07040C7
:1012E000074908600846006840F040500860002048
:1012F000044908600449C1F8980100F005F908BDE7
:10130000000C01409C8121420080214210B500F078
:10131000FBF87B4908800846007800F0010048B1DE
:101320007848007800F0010020B931240A2000F04C
:101330001DFBDFE07248007800F0020048B1714800
:10134000007800F0020020B932240A2000F00EFBE1
:10135000D0E06B48007800F0040048B1694800789C
:1013600000F0040020B933240A2000F0FFFAC1E0A5
:101370006348007800F0080048B16248007800F047
:10138000080020B941240A2000F0F0FAB2E05C48DD
:10139000007800F0100048B15A48007800F01000C2
:1013A00020B934240A2000F0E1FAA3E05448007880
:1013B00000F0200048B15348007800F0200020B928
:1013C00035240A2000F0D2FA94E04D48007800F06D
:1013D000400048B14B48007800F0400020B9362466
:1013E0000A2000F0C3FA85E04548007800F080004C
:1013F00048B14448007800F0800020B942240A2017
:1014000000F0B4FA76E03E48008800F4807048B1FD
:101410003C48008800F4807020B937240A2000F08E
:10142000A5FA67E03648008800F4007048B13548F6
:10143000008800F4007020B938240A2000F096FAE1
:1014400058E02F48008800F4806048B12D4800889B
:1014500000F4806020B939240A2000F087FA49E0BE
:101460002748008800F4006048B12648008800F44E
:10147000006020B943240A2000F078FA3AE02048BE
:10148000008800F4805048B11E48008800F4805065
:1014900020B92A240A2000F069FA2BE018480088B5
:1014A00000F4005048B11748008800F4005020B9FB
:1014B00030240A2000F05AFA1CE01148008800F499
:1014C000804048B10F48008800F4804020B92324B0
:1014D0000A2000F04BFA0DE00948008800F40040B3
:1014E00040B10848008800F4004018B944240A209C
:1014F00000F03CFA0248008802490880204610BDEE
:10150000760600207406002070B5002400252248CD
:10151000006820F07040204908600846006840F0EC
:101520004050086001201D490860642000F074FAF2
:1015300000201B49C1F89C01142000F06DFA1648E8
:10154000006820F07040144908600846006840F0C8
:101550000040086000BF17E001201049091F086023
:10156000642000F059FA00200D49C1F898010120CB
:1015700000F052FA09488038006818B90120A040EC
:10158000284385B2601CC4B2102CE5DB022000F0B9
:10159000EDF9284670BD0000000C01409C812142FD
:1015A0000080214210B540F225511D4800F04AF854
:1015B00010B31B4800F002F9C4B21A48008800F4C6
:1015C0000040C8B91748008800F4804060B10A2C78
:1015D00003D000201349088020E01248008840F41E
:1015E00000401049088019E00D2C06D10D480088F4
:1015F00040F480400B49088010E00A480088C0F39E
:101600000D0009490C5407480088401C0549088012
:1016100008460088C72801DD0020088010BD0000B2
:10162000003801409C060020A006002021B18289DC
:1016300042F40052828104E082894DF6FF731A4021
:101640008281704770B502460024002300250020E7
:1016500040F66A16B14200D100BFC1F3421501F055
:101660001F03012606FA03F3012D02D196893340A8
:1016700006E0022D02D1168A334001E0968A3340FB
:101680000C12012606FA04F41688344013B10CB18A
:10169000012000E0002070BDF0B5034600240026C4
:1016A0000025002040F66A17B94200D100BF184655
:1016B000C1F3421401F01F06012707FA06F5012CB9
:1016C00001D10C3004E0022C01D1103000E01430C4
:1016D0001AB107682F43076002E00768AF4307604D
:1016E000F0BD00002DE9F04786B005460E46002407
:1016F000A24600BFA1460027B08900B100BF2F4617
:101700002C8A4CF6FF700440F08804432C82AC898C
:101710004EF6F3100440B0883189084371890843BC
:101720000443AC81AC8A4FF6FF400440B0890443C7
:10173000AC8201A8FFF778FB1F48874202D1DDF891
:1017400010A001E0DDF80CA0A88900F4004040B131
:101750000AEBCA0000EB0A1031684900B0FBF1F84F
:1017600007E00AEBCA0000EB0A1031688900B0FB01
:10177000F1F86420B8FBF0F004012009642101FBBA
:101780001089A88900F4004040B1322000EBC90064
:10179000B0FBF1F000F00700044308E0322000EB5A
:1017A00009106421B0FBF1F000F00F0004432C811C
:1017B00006B0BDE8F0870000003801400146888887
:1017C000C0F30800704700BFFEE738B516E0694671
:1017D0005220FFF787FA044664B169465220FFF7AA
:1017E00081FA044634B169465220FFF77BFA044679
:1017F00004B138BD4FF47A7000F0B8F8E7E70000A4
:1018000070B504460D467E2000EA440610210748C4
:10181000FEF7D4FE3046FFF751FC2846FFF74EFC9A
:1018200010210248FEF7CCFE70BD00000008014008
:101830002DE9F04105462C464FF400611248FEF7B1
:10184000BDFE00261CE0274607F08007802F04D14C
:10185000F9000D48FEF7B4FE04E04FF480610A4839
:10186000FEF7ACFE6006040E4FF400610648FEF77A
:10187000A7FE4FF400610448FEF7A0FE701CC6B23C
:10188000082EE0DBBDE8F081000C014010B50446F5
:10189000FEF79AFE7820FFF7CBFFFEF7C1FE00208F
:1018A000FFF7C6FFFEF7BCFE2046FFF7C1FFFEF7BD
:1018B000B7FEFEF7A1FE10BD10B50446FEF784FE8C
:1018C0007820FFF7B5FFFEF7ABFE4020FFF7B0FF33
:1018D000FEF7A6FE2046FFF7ABFFFEF7A1FEFEF7E0
:1018E0008BFE10BD30380A2801D20120704700203D
:1018F0007047014600BF704710B56FF00400FFF756
:1019000089FC164800681649B0FBF1F015490860DB
:10191000084600684FF47A71484300EB800080006D
:101920004FF0E02188610846006940F0020008613C
:101930000C4800684FF47A7148434FF0E021486149
:101940000846006940F0010008610648008880B23E
:101950004FF47A7148430449086010BD000000202C
:1019600000127A008C06002090060020F0B5034695
:1019700000224FF0E0277D694FF4FA77B3FBF7F7C9
:10198000FEB21DE0234F3F684FF4FA7C07FB0CF4D6
:1019900000224FF0E027B96910E04FF0E027B86966
:1019A00088420BD0884202D20F1A3A4402E02F1A22
:1019B0000F443A440146A24200D300E0EDE700BFE5
:1019C000371EA6F1010C0CF0FF06DBD14FF4FA77BD
:1019D000B3FBF7FC07FB1C37DFB10E4F3F6803FB7F
:1019E00007F400224FF0E027B96910E04FF0E0273C
:1019F000B86988420BD0884202D20F1A3A4402E0FA
:101A00002F1A0F443A440146A24200D300E0EDE70A
:101A100000BFF0BD9006002070B5034600224FF0D5
:101A2000E02675690D4E366803FB06F44FF0E0269C
:101A3000B16910E04FF0E026B06988420BD08842CF
:101A400002D20E1A324402E02E1A0E4432440146EB
:101A5000A24200D300E0EDE700BF70BD8C0600207D
:101A600000BF054A128802F04002002AF9D0C2B233
:101A7000014B1B1D1A807047003801401FB5FF2421
:101A80000827002597A103C9CDE900014FF4E130F3
:101A900000F0D2F995A0FEF7E1FBA2A0FEF7DEFB75
:101AA000FFF72AFFA8A0FEF7D9FBA9A0FEF7D6FBF7
:101AB000FEF7F1FDA4A0FEF7D1FBB0A0FEF7CEFB30
:101AC000FEF752FEA0A0FEF7C9FBB4A0FEF7C6FBCE
:101AD000FFF774F99CA0FEF7C1FBBAA0FEF7BEFBAE
:101AE000FFF70AF898A0FEF7B9FBC1A0FEF7B6FB16
:101AF000FFF7E0FB94A0FEF7B1FBC7A0FEF7AEFB3B
:101B0000EEE003A95220FFF7EDF80646002E59D16A
:101B10001023324600217820FEF7FAFE022602A8A2
:101B2000FFF70FF806460A2200210846FEF7BCFE22
:101B30000B2200211020FEF7B7FE10233A220021CD
:101B40002020FEF7E5FE9DF8080002110021282064
:101B5000FEF730FF9DF8080000F00F020021302052
:101B6000FEF728FF9DF80900021100213820FEF73A
:101B700021FF9DF8090000F00F0200214020FEF730
:101B800019FF9DF80A00021100214820FEF712FFFC
:101B90009DF80A0000F00F0200215020FEF70AFF16
:101BA0009DF80B00021100215820FEF703FF9DF85D
:101BB0000B0000F00F0200216020FEF7FBFEFFF794
:101BC00004FE53E01023202200217820FEF7A0FE1F
:101BD0001023202200210846FEF79AFE102320221F
:101BE00000210820FEF794FE102320220021184631
:101BF000FEF78EFE1023202200211820FEF788FE1B
:101C00001023202200211046FEF782FE10232022FE
:101C100000212820FEF77CFE102320220021302006
:101C2000FEF776FE1023202200213820FEF770FEFA
:101C30001023202200214020FEF76AFE10232022DC
:101C400000214820FEF764FE1023202200215020AE
:101C5000FEF75EFE1023202200215820FEF758FEDA
:101C60001023202200216020FEF752FEFFF74EFBDA
:101C70000446302C01DB392C01DD232C01D1FEF789
:101C8000DBFE302C14DB392C12DC052D10DC05FBBF
:101C900007F1C8B2102322460421FEF739FE0DF8E1
:101CA00005406420FFF762FE0024681CC5B217E0FF
:101CB0002A2C15D1002D02DD681EC5B201E0FEF709
:101CC0001BFFFF200DF8050005FB07F1C8B210232C
:101CD00020220421FEF71CFE6420FFF747FE0024AB
:101CE0000FE70000FFFFFFFFFFFF0000496E697470
:101CF00069616C697A656420746865205541525445
:101D00002073657269616C20626175642072617410
:101D1000653A2031313532303020426175640D0A28
:101D200000000000537461727420696E6974696107
:101D30006C697A696E67207468652064656C617986
:101D400065722E2E2E0D00005B4F4B5D0D0A0000BC
:101D5000537461727420696E697469616C697A691F
:101D60006E6720746865204E56494320636F6E6627
:101D700069677572652E2E2E0D0000005374617216
:101D80007420696E697469616C697A696E67207420
:101D90006865204F4C45442E2E2E0D005374617201
:101DA0007420696E697469616C697A696E67207400
:101DB000686520524649442D52433532322E2E2E2C
:101DC0000D000000537461727420646973706C615B
:101DD00079696E6720686F6D652070616765206F37
:101DE0006E20746865204F4C45442E2E2E0D000049
:101DF000537461727420696E697469616C697A697F
:101E00006E672074686520746F756368206B6579F0
:101E10007061642E2E2E0D0053797374656D2073DE
:101E2000746172746564207375636365737366753A
:101E30006C6C79210D0A000010B586B004460121B2
:101E400044F20500FEF7E0FF4FF40070ADF8140017
:101E500003208DF8160018208DF8170005A91C48DE
:101E6000FEF718FB4FF48060ADF8140004208DF8E5
:101E7000170005A91648FEF70DFB25208DF8000078
:101E800003208DF801008DF8020001208DF8030079
:101E90006846FEF707FC01940020ADF80800ADF895
:101EA0000A00ADF80C00ADF810000C20ADF80E00E3
:101EB00001A90848FFF716FC012240F22551054808
:101EC000FFF7EAFB01210348FFF7B0FB06B010BDA6
:101ED0000008014000380140000000000000000040
:101EE000002F000000000700070000147F147F147B
:101EF00000242A7F2A120062640813230036495501
:101F0000225000000503000000001C2241000000D8
:101F100041221C000014083E08140008083E08086E
:101F2000000000A0600000080808080800006060C9
:101F30000000002010080402003E5149453E000008
:101F4000427F4000004261514946002141454B31EA
:101F5000001814127F10002745454539003C4A49B6
:101F60004930000171090503003649494936000628
:101F70004949291E00003636000000005636000090
:101F8000000814224100001414141414000041220B
:101F9000140800020151090600324959513E007CE3
:101FA0001211127C007F49494936003E41414122CD
:101FB000007F4141221C007F49494941007F0909B6
:101FC0000901003E4149497A007F0808087F000066
:101FD000417F4100002040413F01007F0814224121
:101FE000007F40404040007F020C027F007F0408D9
:101FF000107F003E4141413E007F09090906003E35
:102000004151215E007F091929460046494949315D
:102010000001017F0101003F4040403F001F204080
:10202000201F003F4038403F00631408146300073E
:102030000870080700615149454300007F41410095
:1020400000552A552A55000041417F000004020135
:102050000204004040404040000001020400002013
:1020600054545478007F4844443800384444442051
:1020700000384444487F00385454541800087E09FE
:1020800001020018A4A4A47C007F080404780000C6
:10209000447D4000004080847D00007F1028440083
:1020A0000000417F4000007C04180478007C080494
:1020B000047800384444443800FC242424180018D0
:1020C000242418FC007C08040408004854545420BC
:1020D00000043F444020003C4040207C001C204045
:1020E000201C003C4030403C004428102844001C88
:1020F000A0A0A07C004464544C4414141414141480
:1021000000E010080810E000000F102020100F0061
:10211000001010F8000000000020203F20200000E8
:102120000070080808887000003028242221300040
:1021300000300888884830000018202020110E0048
:102140000000C02010F8000000070424243F2400F1
:1021500000F80888880808000019212020110E00C6
:1021600000E0108888180000000F112020110E00D8
:1021700000380808C83808000000003F00000000D0
:102180000070880808887000001C222121221C0091
:1021900000E010080810E0000000312222110F00BA
:1021A0000000C038E0000000203C23020227382055
:1021B00008F8888888700000203F202020110E0039
:1021C000C030080808083800071820202010080030
:1021D00008F808080810E000203F202020100F0019
:1021E00008F88888E8081000203F202023201800E5
:1021F00008F88888E8081000203F2000030000004D
:1022000000000000000000000000000000000000CE
:10221000000000F800000000000000333000000063
:1022200000100C06100C060000000000000000006A
:1022300040C07840C0784000043F04043F040400DC
:10224000007088FC08300000001820FF211E0000EC
:10225000F008F000E018000000211C031E211E0001
:1022600000F00888700000001E2123241927211087
:1022700010160E000000000000000000000000002A
:10228000000000E0180402000000000718204000D1
:1022900000020418E00000000040201807000000C1
:1022A000404080F0804040000202010F0102020025
:1022B000000000F0000000000101011F0101010009
:1022C000000000000000000080B07000000000006E
:1022D00000000000000000000001010101010101F7
:1022E000000000000000000000303000000000008E
:1022F0000000000080601804006018060100000063
:1023000000E010080810E000000F102020100F005F
:10231000001010F8000000000020203F20200000E6
:10232000007008080888700000302824222130003E
:1023300000300888884830000018202020110E0046
:102340000000C02010F8000000070424243F2400EF
:1023500000F80888880808000019212020110E00C4
:1023600000E0108888180000000F112020110E00D6
:1023700000380808C83808000000003F00000000CE
:102380000070880808887000001C222121221C008F
:1023900000E010080810E0000000312222110F00B8
:1023A000000000C0C000000000000030300000004D
:1023B00000000080000000000000806000000000BD
:1023C00000008040201008000001020408102000D6
:1023D0004040404040404000040404040404040021
:1023E00000081020408000000020100804020100B6
:1023F000007048080808F0000000003036010000B6
:10240000C030C828E810E0000718272423140B0068
:102410000000C038E0000000203C230202273820E2
:1024200008F8888888700000203F202020110E00C6
:10243000C0300808080838000718202020100800BD
:1024400008F808080810E000203F202020100F00A6
:1024500008F88888E8081000203F20202320180072
:1024600008F88888E8081000203F200003000000DA
:10247000C03008080838000007182020221E02007B
:1024800008F808000008F808203F210101213F203A
:10249000000808F8080800000020203F2020000065
:1024A00000000808F8080800C08080807F00000055
:1024B00008F888C028180800203F2001263820008E
:1024C00008F8080000000000203F202020203000F5
:1024D00008F8F800F8F80800203F003F003F20000F
:1024E00008F830C00008F808203F200007183F0017
:1024F000E01008080810E0000F10202020100F0046
:1025000008F808080808F000203F21010101000038
:10251000E01008080810E0000F18242438504F007D
:1025200008F8888888887000203F2000030C30203D
:1025300000708808080838000038202121221C007B
:10254000180808F8080818000000203F20000000C4
:1025500008F808000008F808001F202020201F00AD
:102560000878880000C83808000007380E0100000D
:10257000F80800F80008F800033C0700073C0300D7
:10258000081868808068180820302C03032C30203D
:102590000838C800C83808000000203F20000000AC
:1025A00010080808C8380800203826212020180004
:1025B000000000FE020202000000007F40404000D8
:1025C000000C30C000000000000000010638C00010
:1025D00000020202FE000000004040407F000000B8
:1025E00000000402020204000000000000000000DD
:1025F00000000000000000008080808080808080DB
:1026000000020204000000000000000000000000C2
:1026100000008080808000000019242222223F20B8
:1026200008F8008080000000003F112020110E00FB
:102630000000008080800000000E1120202011008A
:10264000000000808088F800000E112020103F203C
:102650000000808080800000001F222222221300C0
:10266000008080F0888888180020203F202000000B
:102670000000808080808000006B949494936000C0
:1026800008F8008080800000203F210000203F20CB
:1026900000809898000000000020203F20200000CB
:1026A000000000809898000000C08080807F0000BB
:1026B00008F8000080808000203F24022D30200098
:1026C000000808F8000000000020203F2020000043
:1026D0008080808080808000203F20003F20003F5D
:1026E0008080008080800000203F210000203F206B
:1026F0000000808080800000001F202020201F001C
:10270000808000808000000080FFA12020110E004A
:102710000000008080808000000E112020A0FF803B
:10272000808080008080800020203F2120000100E8
:10273000000080808080800000332424242419003D
:10274000008080E0808000000000001F202000004A
:102750008080000000808000001F202020103F208B
:10276000808080000080808000010E30080601001B
:1027700080800080008080800F300C030C300F00C0
:1027800000808000808080000020312E0E312000EB
:10279000808080000080808080818E70180601001B
:1027A00000808080808080000021302C2221300039
:1027B00000000000807C020200000000003F40405A
:1027C00000000000FF00000000000000FF0000000B
:1027D0000002027C800000000040403F000000003A
:1027E00000060101020204040000000000000000D5
:1027F00004000008000000000000000200010000CA
:10280000100000002428000800000020A00600009E
:102810006C010008142D0008A00600202807000005
:10282000D0010008500600A24A0400011013010262
:102830000304060708094042CC0000445454547F66
:10284000041344401A100C7F201000FF1515155575
:10285000957F0E601F88681FC80810C85452D11297
:102860009408D01000091909FF0500FF1292FF001B
:102870005F807F4D5004E21CE00B10078040201069
:102880000C0347100D030C304080800002FA828256
:10289000FE15301A504C434C502040000818488414
:1028A000443F404458414E60584740004081100723
:1028B00004C40404FC0401214320183F1048407F55
:1028C00040407F41414140000484E45C44C4000234
:1028D000F2824811501008017F10103F000801508B
:1028E000054888403F20500A2010E82724E4342C73
:1028F000E020500A80601F09093F49897F6011C9A3
:1029000062FFFA100D003F904820180700071820BA
:1029100040A0200902FE929292FE02067F13FC0064
:10292000A0100C0F080804FF04844027182720106B
:102930000E1060020CC000E22C203F2028E69D1003
:102940000404047CDE2005FF0909095E12006021F1
:102950000133FF440157404006116D24050204086D
:10296000101040058080BEA20112BE0C21E01306AB
:10297000056B20054484443C0D301C0424448464CD
:102980009C40300FC8080828180000100806018273
:102990004C2018060106A045201004FC0402042166
:1029A000A0101B0040201F20404F4442407F424463
:1029B0004340008060F80704E4242424FF0426E454
:1029C00040200DFF0080814529112F4141818170F8
:1029D00013FE2201410521901004601F02014406EC
:1029E0007F02024282BF11241004E002047B160021
:1029F0000F3600BD323FD514147800010E000014CC
:102A0000A4442434AD6624940444A414201004097E
:102A10000808FD1005FD09090B091208602008F8D7
:102A20000808F80C0B0807351025BB62400710108A
:102A3000000824236AAA2AAA6A2A2A2AEA02026029
:102A40001A115B295F140711100F3040F850480A23
:102A50000404F49495969494F4002006FE02027AFD
:102A60004A0140047A0282B1340FF80700FC8484E2
:102A700084FE8283828000015D2007FF40200041A8
:102A80008E401809101010FF109000FE1F180492BD
:102A9000A29E4A200444827F24141880432C102CC8
:102AA00043800012EAAFAAEA0FFA02888C57245436
:102AB0008C84F01005EAAAAAAB0211012191093E0B
:102AC0004055A0540824A4242222A362A02C0A5812
:102AD0004750484542454850500311D11806F2125C
:102AE0001212F26A357014057F202027AC5005279A
:102AF00020207FDF280B08C838105454FF54547C22
:102B000032100EFF8049312F4849497F49494948D1
:102B1000402EFC9E031F55FEA3031805F4444400F9
:102B20002A3C0B40231549817F05091129B0035325
:102B300000E09E29CF18040008049F5E409A0325F8
:102B4000C046FEF925271310F0251C0C3F2121114A
:102B50001F9040201847803F031D6F03118C1804FD
:102B60002424FC1F1F2322B703291D291B310825FC
:102B7000B121A11409404848E85F484848D0458041
:102B80003C08020B1222D20A0659031004FC04D49A
:102B90009C140ED4047F84C536040088660100634B
:102BA0008C1C08AB8482C10224CF00031E9E6003EC
:102BB0001C0A9EE0809EB2D2929E80B903180DF44A
:102BC000949292F10001F2929494F8401804020257
:102BD000C29025C03C048282025003593E31011D3F
:102BE0009004537E9201139E80EA2C0608884828A0
:102BF0001EFE032308FE063C0E00201808EAACA8BF
:102C0000A8AFA8A8ACEA41032B003EE02C07FF02C6
:102C10000212221E6D0330070909E6F80C04D722C0
:102C2000041130070000071F30205E1DE904116009
:102C30003C057C82827CB7041E08650315212108AF
:102C4000200701003E41413E1E1340C0012006E026
:102C5000FCFFFCE00921902C0C41393F1F1F0F1F86
:102C60001F3F3941C0034DA0041EF2440468059281
:102C700092F2024044098F54245F44848780403498
:102C80000480601C8015DF39C05202A319806C07D4
:102C90001010D0FF90501F051DF0041E03C1036EDD
:102CA000411F052E4080041A8C431AF23D2AF8FA7F
:102CB000240D04047E018047300F10270047E60DE5
:102CC0003E000339C01C0440A09E5F0548059EA03D
:102CD0002020E01F88403E032C04284641B0041009
:102CE000081715D55557557D044404D51517A0422E
:102CF000550125A451402D030565B03D4106AD7039
:102D0000057D70066D7406000611020406080001B8
:042D100000000000BF
:0400000508000131BD
:00000001FF
